{
  "contractName": "CarShop",
  "abi": [
    {
      "anonymous": false,
      "inputs": [
        {
          "indexed": true,
          "internalType": "address",
          "name": "_car",
          "type": "address"
        },
        {
          "indexed": false,
          "internalType": "uint256",
          "name": "_quantity",
          "type": "uint256"
        }
      ],
      "name": "CarAddedForSale",
      "type": "event"
    },
    {
      "anonymous": false,
      "inputs": [
        {
          "indexed": true,
          "internalType": "address",
          "name": "_car",
          "type": "address"
        },
        {
          "indexed": false,
          "internalType": "uint256",
          "name": "_price",
          "type": "uint256"
        },
        {
          "indexed": false,
          "internalType": "uint256",
          "name": "_quantity",
          "type": "uint256"
        }
      ],
      "name": "NewCarAdded",
      "type": "event"
    },
    {
      "anonymous": false,
      "inputs": [
        {
          "indexed": true,
          "internalType": "address",
          "name": "previousOwner",
          "type": "address"
        },
        {
          "indexed": true,
          "internalType": "address",
          "name": "newOwner",
          "type": "address"
        }
      ],
      "name": "OwnershipTransferred",
      "type": "event"
    },
    {
      "anonymous": false,
      "inputs": [
        {
          "indexed": true,
          "internalType": "address",
          "name": "_car",
          "type": "address"
        },
        {
          "indexed": false,
          "internalType": "uint256",
          "name": "_quantity",
          "type": "uint256"
        }
      ],
      "name": "Sold",
      "type": "event"
    },
    {
      "inputs": [
        {
          "internalType": "uint256",
          "name": "",
          "type": "uint256"
        }
      ],
      "name": "allCars",
      "outputs": [
        {
          "internalType": "address",
          "name": "",
          "type": "address"
        }
      ],
      "stateMutability": "view",
      "type": "function"
    },
    {
      "inputs": [
        {
          "internalType": "uint256",
          "name": "",
          "type": "uint256"
        }
      ],
      "name": "availableCars",
      "outputs": [
        {
          "internalType": "address",
          "name": "",
          "type": "address"
        }
      ],
      "stateMutability": "view",
      "type": "function"
    },
    {
      "inputs": [
        {
          "internalType": "address",
          "name": "",
          "type": "address"
        },
        {
          "internalType": "uint256",
          "name": "",
          "type": "uint256"
        }
      ],
      "name": "balances",
      "outputs": [
        {
          "internalType": "address",
          "name": "",
          "type": "address"
        }
      ],
      "stateMutability": "view",
      "type": "function"
    },
    {
      "inputs": [
        {
          "internalType": "address",
          "name": "",
          "type": "address"
        }
      ],
      "name": "inventory",
      "outputs": [
        {
          "internalType": "uint256",
          "name": "price",
          "type": "uint256"
        },
        {
          "internalType": "uint256",
          "name": "quantity",
          "type": "uint256"
        },
        {
          "internalType": "uint256",
          "name": "sold",
          "type": "uint256"
        },
        {
          "internalType": "uint256",
          "name": "soldAmount",
          "type": "uint256"
        }
      ],
      "stateMutability": "view",
      "type": "function"
    },
    {
      "inputs": [],
      "name": "owner",
      "outputs": [
        {
          "internalType": "address",
          "name": "",
          "type": "address"
        }
      ],
      "stateMutability": "view",
      "type": "function"
    },
    {
      "inputs": [],
      "name": "renounceOwnership",
      "outputs": [],
      "stateMutability": "nonpayable",
      "type": "function"
    },
    {
      "inputs": [
        {
          "internalType": "address",
          "name": "newOwner",
          "type": "address"
        }
      ],
      "name": "transferOwnership",
      "outputs": [],
      "stateMutability": "nonpayable",
      "type": "function"
    },
    {
      "inputs": [
        {
          "internalType": "address",
          "name": "_car",
          "type": "address"
        },
        {
          "internalType": "uint256",
          "name": "_price",
          "type": "uint256"
        },
        {
          "internalType": "uint256",
          "name": "_quantity",
          "type": "uint256"
        }
      ],
      "name": "registerNewCar",
      "outputs": [],
      "stateMutability": "nonpayable",
      "type": "function"
    },
    {
      "inputs": [
        {
          "internalType": "address",
          "name": "_car",
          "type": "address"
        },
        {
          "internalType": "uint256",
          "name": "_quantity",
          "type": "uint256"
        }
      ],
      "name": "addNewCar",
      "outputs": [],
      "stateMutability": "nonpayable",
      "type": "function"
    },
    {
      "inputs": [
        {
          "internalType": "address",
          "name": "_car",
          "type": "address"
        },
        {
          "internalType": "uint256",
          "name": "_quantity",
          "type": "uint256"
        }
      ],
      "name": "purchase",
      "outputs": [],
      "stateMutability": "payable",
      "type": "function"
    }
  ],
  "bytecode": "0x608060405234801561001057600080fd5b5061002d61002261003260201b60201c565b61003a60201b60201c565b6100fe565b600033905090565b60008060009054906101000a900473ffffffffffffffffffffffffffffffffffffffff169050816000806101000a81548173ffffffffffffffffffffffffffffffffffffffff021916908373ffffffffffffffffffffffffffffffffffffffff1602179055508173ffffffffffffffffffffffffffffffffffffffff168173ffffffffffffffffffffffffffffffffffffffff167f8be0079c531659141344cd1fd0a4f28419497f9722a3daafe3b4186f6b6457e060405160405180910390a35050565b61196c8061010d6000396000f3fe6080604052600436106100915760003560e01c8063b56a399b11610059578063b56a399b1461015a578063b5fd282a14610197578063cbf1304d146101d7578063e751403314610214578063f2fde38b1461023d57610091565b80633802ebf514610096578063715018a6146100d35780638da5cb5b146100ea5780638de932221461011557806393904a7814610131575b600080fd5b3480156100a257600080fd5b506100bd60048036038101906100b891906112a8565b610266565b6040516100ca919061143f565b60405180910390f35b3480156100df57600080fd5b506100e86102a5565b005b3480156100f657600080fd5b506100ff61032d565b60405161010c919061143f565b60405180910390f35b61012f600480360381019061012a919061121d565b610356565b005b34801561013d57600080fd5b506101586004803603810190610153919061121d565b610999565b005b34801561016657600080fd5b50610181600480360381019061017c91906112a8565b610c05565b60405161018e919061143f565b60405180910390f35b3480156101a357600080fd5b506101be60048036038101906101b991906111f4565b610c44565b6040516101ce949392919061159e565b60405180910390f35b3480156101e357600080fd5b506101fe60048036038101906101f9919061121d565b610c74565b60405161020b919061143f565b60405180910390f35b34801561022057600080fd5b5061023b60048036038101906102369190611259565b610cc2565b005b34801561024957600080fd5b50610264600480360381019061025f91906111f4565b611006565b005b6003818154811061027657600080fd5b906000526020600020016000915054906101000a900473ffffffffffffffffffffffffffffffffffffffff1681565b6102ad6110fe565b73ffffffffffffffffffffffffffffffffffffffff166102cb61032d565b73ffffffffffffffffffffffffffffffffffffffff1614610321576040517f08c379a0000000000000000000000000000000000000000000000000000000008152600401610318906114da565b60405180910390fd5b61032b6000611106565b565b60008060009054906101000a900473ffffffffffffffffffffffffffffffffffffffff16905090565b6000600160008473ffffffffffffffffffffffffffffffffffffffff1673ffffffffffffffffffffffffffffffffffffffff16815260200190815260200160002060000154116103db576040517f08c379a00000000000000000000000000000000000000000000000000000000081526004016103d29061145a565b60405180910390fd5b6000811161041e576040517f08c379a0000000000000000000000000000000000000000000000000000000008152600401610415906114ba565b60405180910390fd5b6000600160008473ffffffffffffffffffffffffffffffffffffffff1673ffffffffffffffffffffffffffffffffffffffff168152602001908152602001600020905060008160010154116104a8576040517f08c379a000000000000000000000000000000000000000000000000000000000815260040161049f9061149a565b60405180910390fd5b600082905081600101548111156104c157816001015490505b8082600001546104d19190611655565b341015610513576040517f08c379a000000000000000000000000000000000000000000000000000000000815260040161050a9061151a565b60405180910390fd5b8082600101600082825461052791906116af565b925050819055508082600201600082825461054291906115ff565b925050819055508082600001546105599190611655565b82600301600082825461056c91906115ff565b925050819055506000600460006105816110fe565b73ffffffffffffffffffffffffffffffffffffffff1673ffffffffffffffffffffffffffffffffffffffff168152602001908152602001600020905060005b8281101561063d5781869080600181540180825580915050600190039060005260206000200160009091909190916101000a81548173ffffffffffffffffffffffffffffffffffffffff021916908373ffffffffffffffffffffffffffffffffffffffff16021790555080806106359061171f565b9150506105c0565b6000846001015414156108a25760008091505b600380549050821015610710578673ffffffffffffffffffffffffffffffffffffffff16600383815481106106ae577f4e487b7100000000000000000000000000000000000000000000000000000000600052603260045260246000fd5b9060005260206000200160009054906101000a900473ffffffffffffffffffffffffffffffffffffffff1673ffffffffffffffffffffffffffffffffffffffff1614156106fd57819050610710565b81806107089061171f565b925050610650565b8091505b600160038054905061072691906116af565b82101561083357600360018361073c91906115ff565b81548110610773577f4e487b7100000000000000000000000000000000000000000000000000000000600052603260045260246000fd5b9060005260206000200160009054906101000a900473ffffffffffffffffffffffffffffffffffffffff16600383815481106107d8577f4e487b7100000000000000000000000000000000000000000000000000000000600052603260045260246000fd5b9060005260206000200160006101000a81548173ffffffffffffffffffffffffffffffffffffffff021916908373ffffffffffffffffffffffffffffffffffffffff160217905550818061082b9061171f565b925050610714565b600380548061086b577f4e487b7100000000000000000000000000000000000000000000000000000000600052603160045260246000fd5b6001900381819060005260206000200160006101000a81549073ffffffffffffffffffffffffffffffffffffffff02191690559055505b60008385600001546108b49190611655565b346108bf91906116af565b905060008111156109425760003373ffffffffffffffffffffffffffffffffffffffff16826040516108f09061142a565b60006040518083038185875af1925050503d806000811461092d576040519150601f19603f3d011682016040523d82523d6000602084013e610932565b606091505b505090508061094057600080fd5b505b8673ffffffffffffffffffffffffffffffffffffffff167fae92ab4b6f8f401ead768d3273e6bb937a13e39827d19c6376e8fd4512a05d9a85604051610988919061155a565b60405180910390a250505050505050565b6109a16110fe565b73ffffffffffffffffffffffffffffffffffffffff166109bf61032d565b73ffffffffffffffffffffffffffffffffffffffff1614610a15576040517f08c379a0000000000000000000000000000000000000000000000000000000008152600401610a0c906114da565b60405180910390fd5b6000600160008473ffffffffffffffffffffffffffffffffffffffff1673ffffffffffffffffffffffffffffffffffffffff1681526020019081526020016000206000015411610a9a576040517f08c379a0000000000000000000000000000000000000000000000000000000008152600401610a919061145a565b60405180910390fd5b60008111610add576040517f08c379a0000000000000000000000000000000000000000000000000000000008152600401610ad4906114ba565b60405180910390fd5b6000600160008473ffffffffffffffffffffffffffffffffffffffff1673ffffffffffffffffffffffffffffffffffffffff168152602001908152602001600020905060008160010154905082826001016000828254610b3d91906115ff565b925050819055506000811415610bb1576003849080600181540180825580915050600190039060005260206000200160009091909190916101000a81548173ffffffffffffffffffffffffffffffffffffffff021916908373ffffffffffffffffffffffffffffffffffffffff1602179055505b8373ffffffffffffffffffffffffffffffffffffffff167f18267aab5c7b787880678bff317a898624580f431ad6e54356867f0fb492348084604051610bf7919061155a565b60405180910390a250505050565b60028181548110610c1557600080fd5b906000526020600020016000915054906101000a900473ffffffffffffffffffffffffffffffffffffffff1681565b60016020528060005260406000206000915090508060000154908060010154908060020154908060030154905084565b60046020528160005260406000208181548110610c9057600080fd5b906000526020600020016000915091509054906101000a900473ffffffffffffffffffffffffffffffffffffffff1681565b610cca6110fe565b73ffffffffffffffffffffffffffffffffffffffff16610ce861032d565b73ffffffffffffffffffffffffffffffffffffffff1614610d3e576040517f08c379a0000000000000000000000000000000000000000000000000000000008152600401610d35906114da565b60405180910390fd5b6000600160008573ffffffffffffffffffffffffffffffffffffffff1673ffffffffffffffffffffffffffffffffffffffff1681526020019081526020016000206000015414610dc3576040517f08c379a0000000000000000000000000000000000000000000000000000000008152600401610dba906114fa565b60405180910390fd5b60008211610e06576040517f08c379a0000000000000000000000000000000000000000000000000000000008152600401610dfd9061153a565b60405180910390fd5b6040518060800160405280838152602001828152602001600081526020016000815250600160008573ffffffffffffffffffffffffffffffffffffffff1673ffffffffffffffffffffffffffffffffffffffff168152602001908152602001600020600082015181600001556020820151816001015560408201518160020155606082015181600301559050506002839080600181540180825580915050600190039060005260206000200160009091909190916101000a81548173ffffffffffffffffffffffffffffffffffffffff021916908373ffffffffffffffffffffffffffffffffffffffff1602179055508273ffffffffffffffffffffffffffffffffffffffff167fabde59257e90232dc2c224ef555ec541ace1d21adab0117df1f0660ddb46251f8383604051610f3e929190611575565b60405180910390a26000811115611001576003839080600181540180825580915050600190039060005260206000200160009091909190916101000a81548173ffffffffffffffffffffffffffffffffffffffff021916908373ffffffffffffffffffffffffffffffffffffffff1602179055508273ffffffffffffffffffffffffffffffffffffffff167f18267aab5c7b787880678bff317a898624580f431ad6e54356867f0fb492348082604051610ff8919061155a565b60405180910390a25b505050565b61100e6110fe565b73ffffffffffffffffffffffffffffffffffffffff1661102c61032d565b73ffffffffffffffffffffffffffffffffffffffff1614611082576040517f08c379a0000000000000000000000000000000000000000000000000000000008152600401611079906114da565b60405180910390fd5b600073ffffffffffffffffffffffffffffffffffffffff168173ffffffffffffffffffffffffffffffffffffffff1614156110f2576040517f08c379a00000000000000000000000000000000000000000000000000000000081526004016110e99061147a565b60405180910390fd5b6110fb81611106565b50565b600033905090565b60008060009054906101000a900473ffffffffffffffffffffffffffffffffffffffff169050816000806101000a81548173ffffffffffffffffffffffffffffffffffffffff021916908373ffffffffffffffffffffffffffffffffffffffff1602179055508173ffffffffffffffffffffffffffffffffffffffff168173ffffffffffffffffffffffffffffffffffffffff167f8be0079c531659141344cd1fd0a4f28419497f9722a3daafe3b4186f6b6457e060405160405180910390a35050565b6000813590506111d981611908565b92915050565b6000813590506111ee8161191f565b92915050565b60006020828403121561120657600080fd5b6000611214848285016111ca565b91505092915050565b6000806040838503121561123057600080fd5b600061123e858286016111ca565b925050602061124f858286016111df565b9150509250929050565b60008060006060848603121561126e57600080fd5b600061127c868287016111ca565b935050602061128d868287016111df565b925050604061129e868287016111df565b9150509250925092565b6000602082840312156112ba57600080fd5b60006112c8848285016111df565b91505092915050565b6112da816116e3565b82525050565b60006112ed6012836115ee565b91506112f882611797565b602082019050919050565b60006113106026836115ee565b915061131b826117c0565b604082019050919050565b6000611333601c836115ee565b915061133e8261180f565b602082019050919050565b60006113566010836115ee565b915061136182611838565b602082019050919050565b60006113796020836115ee565b915061138482611861565b602082019050919050565b600061139c600d836115ee565b91506113a78261188a565b602082019050919050565b60006113bf6012836115ee565b91506113ca826118b3565b602082019050919050565b60006113e26000836115e3565b91506113ed826118dc565b600082019050919050565b6000611405600d836115ee565b9150611410826118df565b602082019050919050565b61142481611715565b82525050565b6000611435826113d5565b9150819050919050565b600060208201905061145460008301846112d1565b92915050565b60006020820190508181036000830152611473816112e0565b9050919050565b6000602082019050818103600083015261149381611303565b9050919050565b600060208201905081810360008301526114b381611326565b9050919050565b600060208201905081810360008301526114d381611349565b9050919050565b600060208201905081810360008301526114f38161136c565b9050919050565b600060208201905081810360008301526115138161138f565b9050919050565b60006020820190508181036000830152611533816113b2565b9050919050565b60006020820190508181036000830152611553816113f8565b9050919050565b600060208201905061156f600083018461141b565b92915050565b600060408201905061158a600083018561141b565b611597602083018461141b565b9392505050565b60006080820190506115b3600083018761141b565b6115c0602083018661141b565b6115cd604083018561141b565b6115da606083018461141b565b95945050505050565b600081905092915050565b600082825260208201905092915050565b600061160a82611715565b915061161583611715565b9250827fffffffffffffffffffffffffffffffffffffffffffffffffffffffffffffffff0382111561164a57611649611768565b5b828201905092915050565b600061166082611715565b915061166b83611715565b9250817fffffffffffffffffffffffffffffffffffffffffffffffffffffffffffffffff04831182151516156116a4576116a3611768565b5b828202905092915050565b60006116ba82611715565b91506116c583611715565b9250828210156116d8576116d7611768565b5b828203905092915050565b60006116ee826116f5565b9050919050565b600073ffffffffffffffffffffffffffffffffffffffff82169050919050565b6000819050919050565b600061172a82611715565b91507fffffffffffffffffffffffffffffffffffffffffffffffffffffffffffffffff82141561175d5761175c611768565b5b600182019050919050565b7f4e487b7100000000000000000000000000000000000000000000000000000000600052601160045260246000fd5b7f4e6f742072656769737465726564206361720000000000000000000000000000600082015250565b7f4f776e61626c653a206e6577206f776e657220697320746865207a65726f206160008201527f6464726573730000000000000000000000000000000000000000000000000000602082015250565b7f4e6f742061626c6520746f207075726368617365207468652063617200000000600082015250565b7f496e76616c6964207175616e7469747900000000000000000000000000000000600082015250565b7f4f776e61626c653a2063616c6c6572206973206e6f7420746865206f776e6572600082015250565b7f416c726561647920616464656400000000000000000000000000000000000000600082015250565b7f4e6f7420656e6f756768207061796d656e740000000000000000000000000000600082015250565b50565b7f496e76616c696420707269636500000000000000000000000000000000000000600082015250565b611911816116e3565b811461191c57600080fd5b50565b61192881611715565b811461193357600080fd5b5056fea2646970667358221220d15d5047da8afdf2c1e121222c67b3d5ab3a35e52767a8cf3cad9248210c7fa864736f6c63430008030033",
  "immutableReferences": {},
  "source": "// SPDX-License-Identifier: MIT\npragma solidity ^0.8.0;\n\nabstract contract Context {\n    function _msgSender() internal view virtual returns (address) {\n        return msg.sender;\n    }\n\n    function _msgData() internal view virtual returns (bytes calldata) {\n        return msg.data;\n    }\n}\n\nabstract contract Ownable is Context {\n    address private _owner;\n\n    event OwnershipTransferred(address indexed previousOwner, address indexed newOwner);\n\n    /**\n     * @dev Initializes the contract setting the deployer as the initial owner.\n     */\n    constructor() {\n        _setOwner(_msgSender());\n    }\n\n    /**\n     * @dev Returns the address of the current owner.\n     */\n    function owner() public view virtual returns (address) {\n        return _owner;\n    }\n\n    /**\n     * @dev Throws if called by any account other than the owner.\n     */\n    modifier onlyOwner() {\n        require(owner() == _msgSender(), \"Ownable: caller is not the owner\");\n        _;\n    }\n\n    /**\n     * @dev Leaves the contract without owner. It will not be possible to call\n     * `onlyOwner` functions anymore. Can only be called by the current owner.\n     *\n     * NOTE: Renouncing ownership will leave the contract without an owner,\n     * thereby removing any functionality that is only available to the owner.\n     */\n    function renounceOwnership() public virtual onlyOwner {\n        _setOwner(address(0));\n    }\n\n    /**\n     * @dev Transfers ownership of the contract to a new account (`newOwner`).\n     * Can only be called by the current owner.\n     */\n    function transferOwnership(address newOwner) public virtual onlyOwner {\n        require(newOwner != address(0), \"Ownable: new owner is the zero address\");\n        _setOwner(newOwner);\n    }\n\n    function _setOwner(address newOwner) private {\n        address oldOwner = _owner;\n        _owner = newOwner;\n        emit OwnershipTransferred(oldOwner, newOwner);\n    }\n}\n\ncontract CarShop is Ownable {\n  struct Car {\n    uint256 price;\n    // available quantity for sale\n    uint256 quantity;\n\n    // sold quantity\n    uint256 sold;\n\n    // total income\n    uint256 soldAmount;\n  }\n\n  // Mapping of car address to car entity\n  mapping(address => Car) public inventory;\n\n  // all cars address list\n  address[] public allCars;\n\n  // available cars address list to purchase\n  address[] public availableCars;\n\n  // Mapping of user address to car addresses purchased\n  mapping(address => address[]) public balances;\n\n  event NewCarAdded(address indexed _car, uint256 _price, uint256 _quantity);\n  event CarAddedForSale(address indexed _car, uint256 _quantity);\n\n  event Sold(address indexed _car, uint256 _quantity);\n\n  // register new car\n  function registerNewCar(address _car, uint256 _price, uint256 _quantity) external onlyOwner {\n    require(inventory[_car].price == 0, \"Already added\");\n    require(_price > 0, \"Invalid price\");\n\n    inventory[_car] = Car(_price, _quantity, 0, 0);\n\n    allCars.push(_car);\n    emit NewCarAdded(_car, _price, _quantity);\n\n    if (_quantity > 0) {\n      availableCars.push(_car);\n      emit CarAddedForSale(_car, _quantity);\n    }\n  }\n\n  // Add more cars into existing car's inventory\n  function addNewCar(address _car, uint256 _quantity) external onlyOwner {\n    require(inventory[_car].price > 0, \"Not registered car\");\n    require(_quantity > 0, \"Invalid quantity\");\n\n    Car storage car = inventory[_car];\n    uint256 _oldQuantity = car.quantity;\n\n    car.quantity += _quantity;\n\n    // it was not available to purchase, so add it again into available lists\n    if (_oldQuantity == 0) {\n      availableCars.push(_car);\n    }\n\n    emit CarAddedForSale(_car, _quantity);\n  }\n\n  // purchase car from the user\n  function purchase(address _car, uint256 _quantity) payable external {\n    require(inventory[_car].price > 0, \"Not registered car\");\n    require(_quantity > 0, \"Invalid quantity\");\n    Car storage car = inventory[_car];\n    require(car.quantity > 0, \"Not able to purchase the car\");\n    // check if requested to purchase more than existing\n    uint256 purchaseQuantity = _quantity;\n    if (purchaseQuantity > car.quantity) {\n      purchaseQuantity = car.quantity;\n    }\n    // check paid amount\n    require(msg.value >= car.price * purchaseQuantity, \"Not enough payment\");\n\n    car.quantity -= purchaseQuantity;\n    car.sold += purchaseQuantity;\n    car.soldAmount += car.price * purchaseQuantity;\n\n    address[] storage _balance = balances[_msgSender()];\n    uint256 i;\n    for (i = 0; i < purchaseQuantity; i++) {\n      _balance.push(_car);\n    }\n\n    if (car.quantity == 0) {\n      // remove from available cars list\n      uint256 _indexAtAvailables;\n      for (i = 0; i < availableCars.length; i++) {\n        if (availableCars[i] == _car) {\n          _indexAtAvailables = i;\n          break;\n        }\n      }\n      for (i = _indexAtAvailables; i < availableCars.length - 1; i++) {\n        availableCars[i] = availableCars[i+1];\n      }\n      availableCars.pop();\n    }\n\n    // if paid more, then refund\n    uint256 remaining = msg.value - car.price * purchaseQuantity;\n    if (remaining > 0) {\n      (bool success, ) = msg.sender.call{value: remaining}(\"\");\n      require(success);\n    }\n\n    emit Sold(_car, purchaseQuantity);\n  }\n}",
  "sourcePath": "/home/rol/Desktop/CarSales/contracts/CarSales.sol",
  "compiler": {
    "name": "solc",
    "version": "0.8.3+commit.8d00100c.Emscripten.clang"
  },
  "schemaVersion": "3.4.1",
  "updatedAt": "2021-10-18T13:20:36.176Z",
  "devdoc": {
    "kind": "dev",
    "methods": {
      "owner()": {
        "details": "Returns the address of the current owner."
      },
      "renounceOwnership()": {
        "details": "Leaves the contract without owner. It will not be possible to call `onlyOwner` functions anymore. Can only be called by the current owner. NOTE: Renouncing ownership will leave the contract without an owner, thereby removing any functionality that is only available to the owner."
      },
      "transferOwnership(address)": {
        "details": "Transfers ownership of the contract to a new account (`newOwner`). Can only be called by the current owner."
      }
    },
    "version": 1
  },
  "userdoc": {
    "kind": "user",
    "methods": {},
    "version": 1
  }
}